:020000040800F2
:100000000000022041160008AD4000083141000800
:1000100045410008654100086D41000800000000EE
:100020000000000000000000000000004117000870
:100030007541000800000000D11700087941000850
:1000400095160008951600089516000895160008E4
:100050009516000895160008B15F0108D15F0108E8
:10006000F15F010811600108316001087D4100085D
:10007000951600088941000895160008954100086A
:10008000A1410008AD41000895160008C5410008CF
:10009000D1410008DD410008E94100085160010834
:1000A0009516000895160008951600089516000884
:1000B000951600089516000895160008F925000801
:1000C00005260008951600089516000895160008E4
:1000D0009516000895160008F541000895160008C9
:1000E000D5600108951600089516000895160008B9
:1000F0006D2300080142000895160008B941000868
:100100009516000895160008612300081D42000896
:100110002942000895160008951600089516000853
:100120009516000895160008951600089516000803
:100130009516000800000000000000009516000859
:100140009516000895160008951600081126000857
:1001500095160008951600089516000895160008D3
:1001600095160008951600089516000895160008C3
:10017000951600081524000800000000000000008B
:08018000951600089516000811
:1001C00001F0FF01102A2BDB10F0070F08D010F808
:1001D000013B013A8B422DD010F0070F42B3F6D10C
:1001E000F0B441EA012141EA014122F007047FF025
:1001F00000070023F0E80256083C85EA010586EA7C
:10020000010685FA47F5A3FA87F586FA47F6A5FAB7
:1002100087F68EB9EED1F0BC01F0FF0102F00702C3
:1002200032B110F8013B013A83EA010313B1F8D16E
:100230000020704701387047002D06BF354603384F
:10024000073815F0010F07D1013015F4807F02BF88
:10025000013015F4C03F0130F0BC0138704700BFD9
:10026000844641EA000313F003036DD1403A41D3C1
:1002700051F8043B40F8043B51F8043B40F8043B80
:1002800051F8043B40F8043B51F8043B40F8043B70
:1002900051F8043B40F8043B51F8043B40F8043B60
:1002A00051F8043B40F8043B51F8043B40F8043B50
:1002B00051F8043B40F8043B51F8043B40F8043B40
:1002C00051F8043B40F8043B51F8043B40F8043B30
:1002D00051F8043B40F8043B51F8043B40F8043B20
:1002E00051F8043B40F8043B51F8043B40F8043B10
:1002F000403ABDD2303211D351F8043B40F8043BB0
:1003000051F8043B40F8043B51F8043B40F8043BEF
:1003100051F8043B40F8043B103AEDD20C3205D3BF
:1003200051F8043B40F8043B043AF9D2043208D0B7
:10033000D2071CBF11F8013B00F8013B01D30B8829
:1003400003806046704700BF082A13D38B078DD007
:1003500010F003038AD0C3F10403D21ADB071CBFD9
:1003600011F8013B00F8013B80D331F8023B20F843
:10037000023B7BE7043AD9D3013A11F8013B00F87C
:10038000013BF9D20B7803704B7843708B78837004
:100390006046704700000000000000000000000000
:1003A000A2EB0300704700BF02780B78012A28BF38
:1003B0009A42F5D16DE9044540EA0104CDE90267AE
:1003C0006FF0000C4FEA447212B380EA010414F09B
:1003D000070F6AD100F0070420F0070004F00305BE
:1003E00021F007014FEAC505F0E8042314F0040FDB
:1003F000F1E804670CFA05F462EA040266EA04060E
:100400000AD063EA0403624667EA0407664603E02B
:10041000F0E80423F1E8046782FA4CF582EA060466
:10042000A4FA8CF46CBB83FA4CF583EA0705A5FAB1
:100430008CF595B950E9022351E9026782FA4CF52F
:1004400082EA0604A4FA8CF483FA4CF583EA0705E1
:10045000A5FA8CF52543DBD09CB92DBAB5FA85F405
:1004600024F0070427FA04F1DDE9026723FA04F314
:1004700003F0FF0001F0FF01FDE80445A0EB0100DF
:10048000704724BAB4FA84F424F0070426FA04F17D
:10049000DDE9026722FA04F202F0FF0001F0FF0139
:1004A000FDE80445A0EB0100704714F0030F3CD1B8
:1004B00010F0030428D150F8082B51F8083B82FAB9
:1004C0004CF582EA0305A5FA8CF55DB950F8042CC9
:1004D00051F8043C82FA4CF582EA0305A5FA8CF542
:1004E000002DE8D02DBAB5FA85F424F0070423FADC
:1004F00004F122FA04F202F0FF0001F0FF01FDE82E
:100500000445A0EB010070474FEAC40420F003004B
:1005100050F8082B21F0030151F8083B0CFA04F4C1
:1005200062EA040263EA0403C9E710F003041AD084
:10053000A1EB040120F00300E40750F8042B06D0DF
:100540000FD28B785FFAA2F4E41A06D12BB1CB78E4
:100550005FFAB2F4E41A00D11BB920465DF8104BE3
:10056000704701F1040150F8042BCC0721F003017E
:1005700051F8043B48D824D222F07F4482FA4CF54B
:1005800094EA1325A5FA8CF50AD165B951F8043B14
:1005900084EA0204B4EB036F0ED150F8042BEBE7AE
:1005A0004FEA132355E035F07F454DD10878FDE83B
:1005B0000445C0F1000070474FEA126203F0FF03E8
:1005C00047E002EA1C4482FA4CF594EA1345A5FA86
:1005D0008CF50AD165B951F8043B84EA0204B4EB06
:1005E000034F0CD150F8042BEBE74FEA134330E0F4
:1005F00015EA1C4528D10B884FEA124229E04FEA40
:10060000124203EA1C4324E002F0FF0482FA4CF594
:1006100094EA1365A5FA8CF50AD165B951F8043B43
:1006200084EA0204B4EB032F09D150F8042BEBE762
:100630004FEA13630DE015F0FF0F05D10B684FEA89
:10064000122223F07F4304E04FF00000FDE8044550
:10065000704712BA1BBA82FA4CF482EA0304A4FA75
:100660008CF5B5FA85F402FA04F203FA04F34FEAC2
:100670001260FDE80445A0EB136070470000000025
:1006800090F800F06DE9024520F007016FF0000CD2
:1006900010F0070491F820F040F049804FF000047A
:1006A0006FF00700D1E9002391F840F000F1080055
:1006B00082FA4CF2A4FA8CF283FA4CF3A2FA8CF38D
:1006C0004BBBD1E9022382FA4CF200F10800A4FAF4
:1006D0008CF283FA4CF3A2FA8CF3E3B9D1E9042348
:1006E00082FA4CF200F10800A4FA8CF283FA4CF37F
:1006F000A2FA8CF37BB9D1E9062301F1200182FA39
:100700004CF200F10800A4FA8CF283FA4CF3A2FA3E
:100710008CF3002BC6D0002A04BF04301A4612BA4C
:10072000B2FA82F2FDE8024500EBD2007047D1E94F
:10073000002304F00305C4F100004FEAC50514F0DE
:10074000040F91F840F00CFA05F562EA05021CBFAF
:1007500063EA050362464FF00004A9E781F0004117
:1007600002E000BF83F0004330B54FEA41044FEA96
:10077000430594EA050F08BF90EA020F1FBF54EA31
:10078000000C55EA020C7FEA645C7FEA655C00F0CD
:10079000E2804FEA5454D4EB5555B8BF6D420CDD9E
:1007A0002C4480EA020281EA030382EA000083EA21
:1007B000010180EA020281EA0303362D88BF30BDC1
:1007C00011F0004F4FEA01314FF4801C4CEA113117
:1007D00002D0404261EB410113F0004F4FEA033376
:1007E0004CEA133302D0524263EB430394EA050F01
:1007F00000F0A780A4F10104D5F1200E0DDB02FA70
:100800000EFC22FA05F2801841F1000103FA0EF203
:10081000801843FA05F359410EE0A5F120050EF1C9
:10082000200E012A03FA0EFC28BF4CF0020C43FAFA
:1008300005F3C01851EBE37101F0004507D54FF007
:10084000000EDCF1000C7EEB00006EEB0101B1F557
:10085000801F1BD3B1F5001F0CD349085FEA30009D
:100860004FEA3C0C04F101044FEA445212F5800FA8
:1008700080F09A80BCF1004F08BF5FEA500C50F145
:10088000000041EB045141EA050130BD5FEA4C0C28
:10089000404141EB0101013C28BFB1F5801FE9D285
:1008A00091F0000F04BF01460020B1FA81F308BFA8
:1008B0002033A3F10B03B3F120020CDA0C3208DD74
:1008C00002F1140CC2F10C0201FA0CF021FA02F14F
:1008D0000CE002F11402D8BFC2F1200C01FA02F1BF
:1008E00020FA0CFCDCBF41EA0C019040E41AA2BFE4
:1008F00001EB0451294330BD6FEA04041F3C1CDAAC
:100900000C340EDC04F11404C4F1200220FA04F0CB
:1009100001FA02F340EA030021FA04F345EA030175
:1009200030BDC4F10C04C4F1200220FA02F001FA37
:1009300004F340EA0300294630BD21FA04F02946B9
:1009400030BD94F0000F83F4801306BF81F4801152
:100950000134013D4EE77FEA645C18BF7FEA655CC5
:1009600029D094EA050F08BF90EA020F05D054EA97
:10097000000C04BF1946104630BD91EA030F1EBF9C
:100980000021002030BD5FEA545C05D140004941A0
:1009900028BF41F0004130BD14F580043CBF01F593
:1009A000801130BD01F0004545F0FE4141F4700179
:1009B0004FF0000030BD7FEA645C1ABF1946104654
:1009C0007FEA655C1CBF0B46024650EA013406BF55
:1009D00052EA033591EA030F41F4002130BD00BF14
:1009E00090F0000F04BF0021704730B54FF48064D1
:1009F00004F132044FF000054FF0000150E700BF52
:100A000090F0000F04BF0021704730B54FF48064B0
:100A100004F1320410F0004548BF40424FF000019D
:100A20003EE700BF42004FEAE2014FEA31014FEAE0
:100A300002701FBF12F07F4393F07F4F81F060512F
:100A4000704732F07F4208BF704793F07F4F04BF7A
:100A500041F40021704730B54FF4607401F0004557
:100A600021F000411CE700BF50EA010208BF7047B7
:100A700030B54FF000050AE050EA010208BF7047A8
:100A800030B511F0004502D5404261EB41014FF411
:100A9000806404F132045FEA915C3FF4D8AE4FF019
:100AA00003025FEADC0C18BF03325FEADC0C18BFFC
:100AB000033202EBDC02C2F1200300FA03FC20FA4D
:100AC00002F001FA03FE40EA0E0021FA02F114449A
:100AD000BDE600BF70B54FF0FF0C4CF4E06C1CEAB3
:100AE00011541DBF1CEA135594EA0C0F95EA0C0F24
:100AF00000F0DEF82C4481EA030621EA4C5123EA97
:100B00004C5350EA013518BF52EA033541F48011C5
:100B100043F4801338D0A0FB02CE4FF00005E1FB78
:100B200002E506F00042E0FB03E54FF00006E1FBC2
:100B300003569CF0000F18BF4EF0010EA4F1FF0405
:100B4000B6F5007F64F5407404D25FEA4E0E6D4145
:100B500046EB060642EAC62141EA55514FEAC52056
:100B600040EA5E504FEACE2EB4F1FD0C88BFBCF5D2
:100B7000E06F1ED8BEF1004F08BF5FEA500E50F183
:100B8000000041EB045170BD06F0004646EA010149
:100B900040EA020081EA0301B4EB5C04C2BFD4EB7B
:100BA0000C0541EA045170BD41F480114FF0000E74
:100BB000013C00F3AB8014F1360FDEBF002001F0E2
:100BC000004170BDC4F10004203C35DA0C341BDC5C
:100BD00004F11404C4F1200500FA05F320FA04F02E
:100BE00001FA05F240EA020001F0004221F0004162
:100BF00010EBD37021FA04F642EB06015EEA430ED5
:100C000008BF20EAD37070BDC4F10C04C4F1200504
:100C100000FA04F320FA05F001FA04F240EA0200B7
:100C200001F0004110EBD37041F100015EEA430E88
:100C300008BF20EAD37070BDC4F1200500FA05F2A8
:100C40004EEA020E20FA04F301FA05F243EA020327
:100C500021FA04F001F0004121FA04F220EA020036
:100C600000EBD3705EEA430E08BF20EAD37070BD7C
:100C700094F0000F0FD101F00046400041EB01015C
:100C800011F4801F08BF013CF7D041EA060195F03E
:100C9000000F18BF704703F00046520043EB0303F8
:100CA00013F4801F08BF013DF7D043EA06037047E5
:100CB00094EA0C0F0CEA135518BF95EA0C0F0CD0F0
:100CC00050EA410618BF52EA4306D1D181EA030136
:100CD00001F000414FF0000070BD50EA410606BF30
:100CE0001046194652EA430619D094EA0C0F02D175
:100CF00050EA013613D195EA0C0F05D152EA0336BA
:100D00001CBF104619460AD181EA030101F00041D7
:100D100041F0FE4141F470014FF0000070BD41F020
:100D2000FE4141F4780170BD70B54FF0FF0C4CF4FA
:100D3000E06C1CEA11541DBF1CEA135594EA0C0F19
:100D400095EA0C0F00F0A7F8A4EB050481EA030E66
:100D500052EA03354FEA013100F088804FEA03334D
:100D60004FF0805545EA131343EA12634FEA02221B
:100D700045EA111545EA10654FEA00260EF00041DC
:100D80009D4208BF964244F1FD0404F5407402D22E
:100D90005B084FEA3202B61A65EB03055B084FEABF
:100DA00032024FF480104FF4002CB6EB020E75EBBC
:100DB000030E22BFB61A754640EA0C005B084FEAE4
:100DC0003202B6EB020E75EB030E22BFB61A754661
:100DD00040EA5C005B084FEA3202B6EB020E75EBAC
:100DE000030E22BFB61A754640EA9C005B084FEA24
:100DF0003202B6EB020E75EB030E22BFB61A754631
:100E000040EADC0055EA060E18D04FEA051545EA1F
:100E100016754FEA06164FEAC30343EA52734FEAC8
:100E2000C2025FEA1C1CC0D111F4801F0BD141EA41
:100E300000014FF000004FF0004CB6E711F4801FA6
:100E400004BF01430020B4F1FD0C88BFBCF5E06F86
:100E50003FF6AFAEB5EB030C04BFB6EB020C5FEA96
:100E6000500C50F1000041EB045170BD0EF0004EEB
:100E70004EEA113114EB5C04C2BFD4EB0C0541EA1D
:100E8000045170BD41F480114FF0000E013C90E61A
:100E900045EA060E8DE60CEA135594EA0C0F08BFDE
:100EA00095EA0C0F3FF43BAF94EA0C0F0AD150EADD
:100EB00001347FF434AF95EA0C0F7FF425AF104670
:100EC00019462CE795EA0C0F06D152EA03353FF498
:100ED000FDAE1046194622E750EA410618BF52EA15
:100EE00043067FF4C5AE50EA41047FF40DAF52EAE9
:100EF00043057FF4EBAE12E74FF0FF3C06E000BF86
:100F00004FF0010C02E000BF4FF0010C4DF804CD92
:100F10004FEA410C7FEA6C5C4FEA430C18BF7FEA52
:100F20006C5C1BD001B050EA410C0CBF52EA430C80
:100F300091EA030F02BF90EA020F0020704710F100
:100F4000000F91EA030F58BF994208BF90422CBF8F
:100F5000D8176FEAE37040F0010070474FEA410C88
:100F60007FEA6C5C02D150EA013C07D14FEA430CA6
:100F70007FEA6C5CD6D152EA033CD3D05DF8040B17
:100F8000704700BF8446104662468C461946634649
:100F900000E000BF01B5FFF7B7FF002848BF10F120
:100FA000000F01BD4DF808EDFFF7F4FF0CBF012065
:100FB00000205DF808FB00BF4DF808EDFFF7EAFFE1
:100FC00034BF012000205DF808FB00BF4DF808ED9C
:100FD000FFF7E0FF94BF012000205DF808FB00BF91
:100FE0004DF808EDFFF7CEFF94BF012000205DF81B
:100FF00008FB00BF4DF808EDFFF7C4FF34BF012028
:1010000000205DF808FB00BF4FEA410C7FEA6C5CF2
:1010100002D150EA013C0AD14FEA430C7FEA6C5CF2
:1010200002D152EA033C02D14FF0000070474FF06A
:10103000010070474FEA410212F5001215D211D596
:101040006FF47873B3EB625212D94FEAC12343F0C5
:10105000004343EA505311F0004F23FA02F018BF47
:10106000404270474FF00000704750EA013005D110
:1010700011F0004008BF6FF0004070474FF00000D3
:10108000704700BF4A0011D212F5001211D20DD5DF
:101090006FF47873B3EB62520ED44FEAC12343F07E
:1010A000004343EA505323FA02F070474FF0000028
:1010B000704750EA013002D14FF0FF3070474FF0D7
:1010C000000070474FEA4102B2F1E04324BFB3F59C
:1010D000001CDCF1FE5C0DD901F0004C4FEAC002AF
:1010E0004CEA5070B2F1004F40EB830008BF20F093
:1010F0000100704711F0804F21D113F13872BCBF4D
:1011000001F00040704741F480114FEA5252C2F1A1
:101110001802C2F1200C10FA0CF320FA02F018BFEA
:1011200040F001004FEAC1234FEAD32303FA0CFC3D
:1011300040EA0C0023FA02F34FEA4303CCE77FEACC
:10114000625307D150EA01331EBF4FF0FE4040F416
:101150004000704701F0004040F0FE4040F40000C5
:10116000704700BF80F0004002E000BF81F0004106
:1011700042001FBF5FEA410392EA030F7FEA226C3D
:101180007FEA236C6AD04FEA1262D2EB1363C1BFCD
:10119000D218414048404140B8BF5B42192B88BF3C
:1011A000704710F0004F40F4000020F07F4018BF5F
:1011B000404211F0004F41F4000121F07F4118BF7F
:1011C000494292EA030F3FD0A2F1010241FA03FC27
:1011D00010EB0C00C3F1200301FA03F100F000430F
:1011E00002D5494260EB4000B0F5000F13D3B0F1D7
:1011F000807F06D340084FEA310102F10102FE2A46
:1012000051D2B1F1004F40EBC25008BF20F00100B5
:1012100040EA03007047490040EB0000013A28BF54
:10122000B0F5000FEDD2B0FA80FCACF1080CB2EBD7
:101230000C0200FA0CF0AABF00EBC2505242184355
:10124000BCBFD0401843704792F0000F81F40001FA
:1012500006BF80F400000132013BB5E74FEA4103CD
:101260007FEA226C18BF7FEA236C21D092EA030F39
:1012700004D092F0000F08BF0846704790EA010FB3
:101280001CBF0020704712F07F4F04D1400028BFE0
:1012900040F00040704712F100723CBF00F50000C2
:1012A000704700F0004343F0FE4040F400007047F8
:1012B0007FEA226216BF08467FEA236301464202A4
:1012C00006BF5FEA412390EA010F40F480007047B7
:1012D0004FF0000304E000BF10F0004348BF40425D
:1012E0005FEA000C08BF704743F0964301464FF099
:1012F00000001CE050EA010208BF70474FF00003F5
:101300000AE000BF50EA010208BF704711F0004335
:1013100002D5404261EB41015FEA010C02BF844605
:101320000146002043F0B64308BFA3F18053A3F564
:101330000003BCFA8CF2083AA3EBC25310DB01FAAB
:1013400002FC634400FA02FCC2F12002BCF1004F2F
:1013500020FA02F243EB020008BF20F001007047C0
:1013600002F1200201FA02FCC2F1200250EA4C0014
:1013700021FA02F243EB020008BF20EADC7070475A
:101380007BB972B90029BEBF00204FF0004106E0D2
:1013900008BF00281CBF6FF000414FF0FF3000F085
:1013A0002DB9ADF1080C6DE904CE002909DB002B45
:1013B0001ADB38F05FFCDDF804E0DDE9022304B05D
:1013C0007047404261EB4101002B1BDB38F052FCBF
:1013D000DDF804E0DDE9022304B0404261EB4101A5
:1013E000524263EB43037047524263EB430338F0CE
:1013F00041FCDDF804E0DDE9022304B0404261EB8A
:1014000041017047524263EB430338F033FCDDF88F
:1014100004E0DDE9022304B0524263EB430370476A
:1014200053B94AB9002908BF00281CBF4FF0FF314B
:101430004FF0FF3000F0E2B8ADF1080C6DE904CEDA
:1014400038F018FCDDF804E0DDE9022304B0704751
:1014500000F1340191E838009C46A6464CF8045D42
:1014600090E8FF0FE54600BD90EC210B704700BFF0
:1014700080EC210B704700BF90EC200B704700BF41
:1014800080EC200B704700BFD0EC200B704700BFF2
:10149000C0EC200B704700BFF0EC0201F0EC021131
:1014A000F0EC0221F0EC0231F0EC0241F0EC0251E0
:1014B000F0EC0261F0EC0271F0EC0281F0EC0291D0
:1014C000F0EC02A1F0EC02B1F0EC02C1F0EC02D1C0
:1014D000F0EC02E1F0EC02F1704700BFE0EC020139
:1014E000E0EC0211E0EC0221E0EC0231E0EC024120
:1014F000E0EC0251E0EC0261E0EC0271E0EC028110
:10150000E0EC0291E0EC02A1E0EC02B1E0EC02C1FF
:10151000E0EC02D1E0EC02E1E0EC02F1704700BF48
:10152000B0FC0181B0FC0191B0FC01A1B0FC01B1A3
:10153000704700BFA0FC0181A0FC0191A0FC01A1AB
:10154000A0FC01B1704700BFEC4600B52DE900508A
:101550002DE9FF1F4FF000032DE90C0001A938F021
:10156000FFFDDDF840E012B0704700BFEC4600B56B
:101570002DE900502DE9FF1F4FF000032DE90C006D
:1015800001A938F024FEDDF840E012B0704700BF3A
:10159000EC4600B52DE900502DE9FF1F4FF0000388
:1015A0002DE90C0001A938F032FEDDF840E012B060
:1015B000704700BFEC4600B52DE900502DE9FF1F34
:1015C0004FF000032DE90C0001AB38F0F6FDDDF81B
:1015D00040E012B0704700BFEC4600B52DE9005066
:1015E0002DE9FF1F4FF000032DE90C0001AA38F090
:1015F00066FEDDF840E012B0704700BF704700BFE4
:1016000010B5054C237833B9044B13B10448AFF33C
:1016100000800123237010BDF00E002000000000A8
:1016200004AB030808B5034B1BB103490348AFF3F0
:10163000008008BD00000000F40E002004AB030889
:10164000DFF838D0002103E00D4B5B5843500431E4
:101650000C480D4B42189A42F6D30C4A02E0002384
:1016600042F8043B0A4B9A42F9D302F047FE13F0CA
:10167000F5F92EF0B3FD13F04DFA7047000002208B
:10168000E4FB040800000020EC0E0020F00E002017
:1016900040F90020FEE7000008480068006880F379
:1016A00008884FF0000080F3148862B661B6BFF37B
:1016B0004F8FBFF36F8F00DF00BF000008ED00E029
:1016C000DFF80C00016841F4700101607047000010
:1016D00088ED00E00E4B1B6882B0002201330192BE
:1016E00008D04FF0500383F31188BFF36F8FBFF31F
:1016F0004F8FFEE74FF0500383F31188BFF36F8FD6
:10170000BFF34F8F019B002BFCD002B0704700BF8E
:101710001402002010B44FF08073074C40F8043CD2
:1017200021F001016FF0020340E9034140E9093271
:101730005DF8044B44387047D516000800000000DF
:10174000074B19680868B0E8F04F80F30988BFF3C9
:101750006F8F4FF0000080F311887047AFF3008067
:1017600058A100204FF0500383F31188BFF36F8F0F
:10177000BFF34F8F0B4A13680133012B136000D066
:1017800070474FF0E023D3F8043DDBB2002BF7D0D5
:101790004FF0500383F31188BFF36F8FBFF34F8F68
:1017A000FEE700BF14020020084A136843B94FF057
:1017B000500383F31188BFF36F8FBFF34F8FFEE7A2
:1017C000013B13600BB983F31188704714020020AA
:1017D000EFF30980BFF36F8F154B1A681EF0100FDF
:1017E00008BF20ED108A20E9F04F10602DE90900B4
:1017F0004FF0500080F31188BFF34F8FBFF36F8F0E
:1018000009F032FB4FF0000080F3118809BC196821
:101810000868B0E8F04F1EF0100F08BFB0EC108A57
:1018200080F30988BFF36F8F704700BFAFF300806C
:1018300058A1002008B54FF0500383F31188BFF37F
:101840006F8FBFF34F8F09F08FF928B14FF0E0236E
:101850004FF08052C3F8042D002383F3118808BD94
:101860004FF0E02200230649136193610B6805499C
:10187000A1FB03139B090720013B536110617047D3
:101880003C040020D34D62104FF0E0233E4AD3F8D1
:10189000001D914243D0D3F8002D3C4B9A4235D0E5
:1018A00030B53B4B3B481A783B4C83B0FF21D2B25A
:1018B000019219701B78DBB28DF803309DF803306C
:1018C0009DF8032003F050030721037010062160E8
:1018D00048BF062211D59DF803305B00DBB28DF8BE
:1018E00003309DF803100906104602F1FF32F2D4CE
:1018F000032820608DF803301AD04FF0500383F393
:101900001188BFF36F8FBFF34F8FFEE74FF0500387
:1019100083F31188BFF36F8FBFF34F8FFEE74FF054
:10192000500383F31188BFF36F8FBFF34F8FFEE730
:10193000019B174A4FF0E0254FF44071DBB2216064
:101940001370D5F8203D43F47003C5F8203DD5F859
:10195000203D43F07043C5F8203DFFF781FF0F4B5A
:1019600000241C60FFF7ACFED5F8343F43F0404341
:10197000C5F8343FFFF790FE09F076FAFFF7AAFEAC
:10198000204603B030BD00BF71C20F4170C20F418D
:1019900000E400E00C0F0020100F002014020020D3
:1019A000EFF305830F2B0ED91149124A5B5C1278B5
:1019B0009A4208D94FF0500383F31188BFF36F8F19
:1019C000BFF34F8FFEE74FF0E0230B4AD3F80C3DF7
:1019D000126803F4E063934208D94FF0500383F395
:1019E0001188BFF36F8FBFF34F8FFEE7704700BFC3
:1019F000F0E300E00C0F0020100F002001207047E2
:101A0000B6EE000A704700BFB6EE000A704700BF8E
:101A10009FED010A704700BF5E74513F9FED010AC0
:101A2000704700BF5E74513F90F82C00A0F1020097
:101A3000B0FA80F04009704790F82800A0F1020049
:101A4000B0FA80F04009704710B5254BDFED257ADC
:101A500084460C460FCB84B0B4EEE70A0DF1100EAD
:101A6000F1EE10FA0EE90F0033D5DFED1F7AB4EE78
:101A7000E70AF1EE10FA2FD5F3EE047AB4EEE70A96
:101A8000F1EE10FA54BF0123002399002CB104AAEF
:101A900002EB830353F8103C2360BCF82430B3F509
:101AA000AA6F03D1BCF826308B420FD0DCF81400AB
:101AB000ACF826104FF4AA630022ACF824308CF85E
:101AC0002C2018B1BCF8181004F0B0FA012004B0B2
:101AD00010BD0C210323D9E708210223D6E700BF5C
:101AE00020AB03080000A0420000204290F82C30F8
:101AF0002BB1C36923B11B69028C1A4200D0704715
:101B0000002380F82C3070472DE9F04F074691B044
:101B100041F400464FF0010A4FF47A7B27F8286F12
:101B2000CDE90CAB00230B930A9700F10C092A4D69
:101B30000F92044699E803000DF1200805F10C0E00
:101B400088E80300BEE80F00EC46ACE80F009EE812
:101B50000F008CE80F0095E80E00A06814F04CFE12
:101B600020B90025284611B0BDE8F08F50460BF093
:101B70002DFC0A97CDF834B02685CDF830A099E831
:101B8000030004F12A030B9305F10C074FF6FF73D2
:101B900088E8030063850FCF6E460FC697E80F00F5
:101BA00086E80F0095E80E00A06814F025FE0546B3
:101BB0000028D6D050460BF009FC638D4BF6EF623F
:101BC0009342CED00F9A002ACCD0C3F30A03284602
:101BD000138011B0BDE8F08F1CAD030810B582B0C2
:101BE00001AA00210446FFF78FFF88B10DF106021C
:101BF0004FF400612046FFF787FF48B1BDF80600AB
:101C0000BDF80430000400F40000184302B010BD19
:101C10004FF0FF3002B010BD70B5C2F30A028EB0B3
:101C2000114301264FF47A72CDE90C62044600F1AB
:101C30000C030185114D93E8030004F128030A9376
:101C400000230B9305F10C0E08AB83E80300BEE8FC
:101C50000F00EC46ACE80F009EE80F008CE80F0088
:101C600095E80E00A06814F0C7FD044610B1304698
:101C70000BF0ACFB20460EB070BD00BF1CAD0308DE
:101C800090F82C30022B00F0838010B50446406998
:101C900082B018B1218B002204F0C8F928200BF083
:101CA00095FB6069002384F82C3018B1218B012248
:101CB00004F0BCF9142009F0B5FCA28C4FF480515B
:101CC0002046FFF7A9FF10B9002002B010BDA28C7A
:101CD0004FF480512046FFF79FFF0028F4D0A28CDC
:101CE0004FF480512046FFF797FF0028ECD0A28CDC
:101CF0004FF480512046FFF78FFF0028E4D0A28CDC
:101D00004FF480512046FFF787FF0028DCD0E28C9B
:101D10004FF4C0512046FFF77FFF0028D4D0642045
:101D20000BF054FB012384F82C300DF106024FF424
:101D300080512046FFF7E8FE0028C5D0A28CBDF8F0
:101D400006309A42C0D10DF106024FF4C051204630
:101D5000FFF7DAFE0028B7D0E28CBDF806309A42D1
:101D6000B2D12046FFF73AFF0028ADD1EFF3108340
:101D700072B694F82C20012A04BF022284F82C2089
:101D800083F3108894F82C00831E584258419CE736
:101D900001207047704700BF704700BF82B010B489
:101DA0008BB001AC84E80700019A0D931168029A88
:101DB0001C460B6812686FF0010003400B60CB6893
:101DC0000340CB604B6943F001034B6108614C62F7
:101DD000136803401360D468039B04401B68D460FD
:101DE000546944F0010454610E9C106154621C68F3
:101DF00004401C60DC680440DC605C69049144F0D1
:101E000001045C610F9C18615C620C6810681968C1
:101E1000059244F0010440F0010041F001010794F3
:101E2000089006930991EFF3108372B6DDE9041070
:101E3000DDE906240C60DDE908410460116083F3EC
:101E400010880BB05DF8044B02B070470448054A97
:101E5000036D1B68934200D170475030184700BF94
:101E60000C8C0020991D00080448054A836B1B68F0
:101E7000934200D170473830184700BF948A002041
:101E8000951D0008494A136813F0040331D0F0B5DA
:101E9000474E33682DED028B03F00603062B85B009
:101EA00004D0002005B0BDEC028BF0BD414F3B6873
:101EB00003F00603062BF4D10546D06B0C460BF05D
:101EC00079FE3D48FFF7B0FDA8B93C48FFF7ACFDEF
:101ED000002833D135483649364A6FF0040404608F
:101EE0006FF0260301200B60136005B0BDEC028B80
:101EF000F0BD18467047F26B314968460DF0C2FDDF
:101F0000FA6B2F499DED008A02A80DF0BBFD9DF8EC
:101F10000430002BD9D09DF80C30002BD5D09DED8E
:101F2000027A2B7BF1EE487A77EEC77A5BB3C5ED88
:101F3000007A85ED018A85ED027AC6E71C4B2149BE
:101F4000DA6C68460DF09EFD1A4B1E49DA6C9DED69
:101F5000008A02A80DF096FD9DF80430002BB9D040
:101F60009DF80C30002BB5D09DED027A237BF1EE6D
:101F7000487A77EEC77A7BB1C4ED007A84ED018AA6
:101F800084ED027AA6E70123C5ED007A85ED018A8A
:101F900085ED027A2B7398E70123C4ED007A84ED76
:101FA000018A84ED027A237394E700BF0020014088
:101FB00000210140002201408C8B0020BC8B0020BE
:101FC000B08C0020608E002008B502F0C5FA01F048
:101FD0001BFA084A084B1178FF2918BF1346DA7814
:101FE000032A00D0FEE71A79062AFBD15B79182B69
:101FF000F8D108BD0078FF1F0000002070B582B046
:1020000002F0A4F901F0B4F901F008FE01F058FE65
:1020100001F02CF801F02AF900F048FE00F07EFEF5
:1020200001F0E0FB01F0A0FE01F0CCF800F0AEFE04
:1020300000F0FCFE00220121062003F0BBF906207F
:1020400003F0F4F900220121072003F0B3F907207F
:1020500003F0ECF900220121082003F0ABF908207D
:1020600003F0E4F900220121092003F0A3F909207B
:1020700003F0DCF9002201210A2003F09BF90A2079
:1020800003F0D4F900220121172003F093F917205F
:1020900003F0CCF900220121282003F08BF928203D
:1020A00003F0C4F9002205214D2003F083F94D20EF
:1020B00003F0BCF9002211462C20554C03F07AF9AC
:1020C0002C2003F0B3F994F88931002B35D194F822
:1020D0008A31002B3CD194F89931002B43D194F8EC
:1020E00098313BB194F88731072B00F088800123A9
:1020F00084F8CC32474BD86840F00100D860DC68E7
:10210000454844F00204DC609C6844F080049C6014
:1021100000224FF4805103F089FF28200BF056F97C
:1021200001224FF480513C4803F080FF44F62060C8
:102130000BF04CF9012002B070BD384BD4F88C2163
:102140001B685A6001F01EFC94F88A31002BC2D043
:10215000334BD4F890211B685A6001F02FFC94F89F
:102160009931002BBBD02F4D05F1180393E80300E4
:102170006E46002386E8030001221946304613F01C
:102180002FFD05F1200393E80300002386E80300F8
:1021900001221946304613F023FD05F1280393E888
:1021A0000300002386E8030001221946304613F09D
:1021B00017FD012009F036FAAB69AA8B23B11B6920
:1021C0001A4214BF01230023286AAA8C28B101698E
:1021D0000A4214BF012000204000AA6AA98D32B132
:1021E0001269114214BF0122002243EA82031843FC
:1021F0000D4B40F06800187002F01AF96FE794F880
:102200008831072B3FF476AF012384F8CC3271E795
:1022100010E30020002004E000040240B00300208E
:10222000B4030020048B0020C8F800202DE9F043FF
:102230008FB0EFF3108472B6304F314E3A68306889
:102240009368DFF8D0902F4D23F44013936081689A
:102250002D4A01EA090181602868816801EA0901C3
:1022600002F10C08816007CA0DF1080E8EE8070024
:1022700098E8070005AB83E807009EE807000DF12A
:10228000200C8CE8070093E807000EAB03E9070079
:102290000EAA034612E903008DE803009CE807003C
:1022A000FFF77CFD396832688868184E2B6840F467
:1022B000801088609068304390609D681448354372
:1022C0009D606FF0040500680D6015601D606FF083
:1022D00002050D6015601D606FF020050D60156032
:1022E0006FF001021D600261C36843F00103C36027
:1022F00084F310880FB0BDE8F08300BF189A002067
:10230000609A0020A89A002030AB0308000010104B
:10231000D0920020FFFFCFCF034B834200D0704705
:10232000024814F0B1BA00BFC09700209C90002072
:10233000034B834200D07047024814F0A5BA00BF97
:10234000C09700209C900020034B834200D0704730
:10235000024814F099BA00BFC09700209C9000205A
:10236000014811F0A5BC00BF109000201F4B204970
:102370001B6820486FF0010210B51A610A680478E2
:10238000C2F3001C644522D01B4C80F800C02368B7
:1023900003F52453043302F0100223604AB1174AB4
:1023A00040F2D663CB638B634B63D3639363536316
:1023B00010BD1348134B90F8E0221A70A0F580402E
:1023C00012F014FB104B4D22C3F8002E10BD0F4825
:1023D0004FF4002200230DF077FABDE810400C48BE
:1023E0004FF4002200230DF06FBA00BFD0920020FE
:1023F00000040140A0860020A490002000000140BD
:1024000010E30020140F002000E100E0B08C002059
:10241000608E00202DE9F04F8BB002AD06ACDFF8E6
:10242000CC91002321462846C5E90133C4E9013394
:10243000D9F800600293EB600693E360FFF722FD9A
:10244000002800F0AA80624B5B6C13F4004300F09C
:102450009D80604B5B6C13F4004300F090800DF1A5
:10246000100898E803008DE8030008AF95E80C0019
:102470005948A6F256610DF077FC97E803008DE805
:102480000300564894E80C0031460DF06DFC3146CF
:10249000534813F051F9534B534A596A490089B2D2
:1024A00013689B07FCD54F4BDFF844A15B6A9AF891
:1024B0000020DFF840B15B009BB2581A1AB1CBE99B
:1024C000C513CBF81C03DBF82033834238BF034627
:1024D00021462846CBF82033FFF7D4FC002841D012
:1024E00098E803008DE8030006F50A5195E80C0012
:1024F00039482E310DF056FD97E803008DE80300B2
:1025000006F52455043594E80C00344829460DF0AE
:1025100049FD06F5E941304836310DF0AFFD06F5CD
:10252000F6412E480C310DF0A9FDD9F800309D423E
:1025300009D02948102200230DF0C6F9274810229F
:1025400000230DF0C1F99BF8E0321BB19AF800307E
:1025500083F0010300228BF8E0328AF800200BB0F0
:10256000BDE8F08F1C484FF0007200230DF0ACF96D
:102570001A484FF0007200230DF0A6F9B0E79DF85D
:102580002420F2B10693C4E9013368E79DF81420D2
:1025900082B10293C5E901335BE70F484FF0007247
:1025A00000230DF091F90D484FF0007200230DF05B
:1025B0008BF948E701230292C5E901228DF8143016
:1025C00047E701230692C4E901228DF8243046E74B
:1025D0000000014000040140B08C0020608E00200B
:1025E00010A30020001C004000210140A490002006
:1025F000140F002010E30020014803F0F5BE00BFD7
:10260000E0A00020014803F03DBE00BFE0A0002094
:10261000014804F04DBB00BF1093002010B53821D5
:10262000044628F05FFF204610BD00BF10B55021C2
:10263000044628F057FF204610BD00BF2DE9F04F9B
:10264000D848D94CD94EDA4DDA4A00232DED028B09
:10265000C4E90003D848F06002F11801E86000F511
:102660008060C6E90021C5E9002173614FF4804212
:10267000338386F82C306B612B8385F82C30F06126
:102680000423E8614FF400502A823082CB4ACC48C0
:10269000B46095B0AC600F2133842B840EF008F841
:1026A0000423C64AC74819460EF002F8C64AC7496D
:1026B000002028F09FFEC6480EF022F8C5480EF014
:1026C0001FF8DFF80C83BE4FBF4AC349DFF8E8B2FA
:1026D000DFF858A39FEDC18A002028F08BFECDE9DA
:1026E00001789FEDBF0AB14BBE4900960622BE4855
:1026F0000CF026FF383708F15002CDE900579FED66
:10270000B80AAB4BB9490292B94806220CF018FF3F
:102710004FF400730694ADF84C30CDF848B00DF18D
:10272000480999E803001022ADF83C200DF110088B
:102730002022ADF84420ADF83430CDF840A0CDF8DB
:1027400038A0CDF830B088E8030010AF97E8030058
:1027500002AE86E803000EAD95E803008DE80300A5
:102760000CAB0CCBA349A4480EF084F84FF4004303
:102770000694ADF84C30CDF848B099E80300ADF8B8
:102780003430CDF830B0CDF840A0CDF838A088E88E
:1027900003008023ADF8443097E8030086E8030087
:1027A0004023ADF83C3095E803008DE803000CAB06
:1027B0000CCB924992480EF05DF8924B322103F116
:1027C000B000002283ED008A59601A819A72DA7291
:1027D0001A755A759A7583ED068A83ED078A83ED1B
:1027E000088A83ED098A83F82820C3E903222C3361
:1027F0008342E7D1844DDFF83892844B844FDFF871
:102800003482C9F8003001260224C9F81030C9E921
:102810000222C9E90622A9F80420A9F814200021FF
:10282000402289F8066089F8166028462EF07EF866
:10283000C5F80C8028226F60AF6085ED0B8A85EDAE
:102840000D8A85ED0F8AAC622C63AC63002105F123
:1028500040002EF06BF8DFF8E0C1C5F84C80DFF8DF
:10286000DC81DFF8DCA1DFF8DCE19FED6A4ADFED17
:102870006A4A9FED6A5ADFED6A5A9FED6A6A6F6491
:10288000AF64AC6685ED1B8A2C67AC6785ED1D8A4D
:1028900085ED1F8A4FF0000B434662460320F3EE9E
:1028A000046A4FF4806797630024F7EE007AB0EE75
:1028B000007A4FF07A57C2ED0A7AC2ED0D7A57646A
:1028C000C2F800E010735673C2ED046A82ED054A47
:1028D000C2ED064A82ED085AC2ED095A82ED0B6A32
:1028E000C2F83CB082F83040946482ED077A82ED01
:1028F000107AFF2743ED2D7A43ED2C7A43ED2B7AA6
:1029000043ED267A43F64411F2EE047A03F89C7CF8
:1029100003F8B84C03F8B74C03F8A86C03F8A04CC4
:1029200003F89F6C03F89E6C03F89D6C43F894BC0D
:1029300043ED297A0A4403F8907C3B4F43F8807CAE
:1029400052454FF0020743ED217A43ED236A43EDF0
:10295000226A43F8784C03F8744C43F870BC43F88F
:102960006CBC03F8684C43F864BC03F8604C43F853
:102970005CBC03F8584C43F854BC03F8504C43F883
:102980004CBC43F848BC43F844BC43F840BC43F853
:102990003CBC43F838BC43F834BC43F830BC43F883
:1029A0002CBC51E0C09700209C9000208C8B002014
:1029B000BC8B00207CAD030800080240A0AD0308DA
:1029C000948A0020CC8A002010020020691E000892
:1029D0000C8C00205C8C00204D1E000800000000C4
:1029E000FFFFF94468910020B08C0020D0920020B5
:1029F000608E00201C920020A486002058920020A7
:102A000044880020E48900201C90002030B4030892
:102A100000007A44ABAA2A3EABAAAA3E9A99993FF3
:102A20000000807F0AD7233C000020C10004024040
:102A3000EC8B00200118CF3A181400205C4D0020C8
:102A4000A086002084B4030843F828BC43F824BCC3
:102A500043F820BC43F81CBC43F818BC03F8144CE2
:102A600003F8136C03F8124C43F810BC43F80CBC89
:102A700043F804BC43F8087C0B447FF412AF5A4B74
:102A8000CDF82090CDE9025C584D069303F12C0956
:102A9000DFF890B1DFF890A100904FF07C53CDE9C2
:102AA0000A4409940595214685ED017A85ED117A50
:102AB0002C602C640122CDF81C90CDF810B0CDF81C
:102AC00004A04B48AB60EB60AB64EB643B460BF09F
:102AD0000BFA0BF5D87304930AF5D0730193454BA9
:102AE00008934035444B059507220825029309F1C8
:102AF0002C0109F15803CDE909250B96079306919E
:102B00002B46CDF80C80009701213C480BF0ECF9E6
:102B10003B4A3C4B14600421918391864FF4004161
:102B20009187A2F8741020204FF48071A2F854000D
:102B3000A2F87C1040203449948093624FF40074D2
:102B40009365A2F8640013679160A3F58063116137
:102B50009161116291638020102196819584A2F881
:102B60004450A2F86C0013632848136493641365FF
:102B7000136693669367264E264D9782A2F85C40B3
:102B80009185A2F84C10C2F88030234BA2F8844003
:102B9000C0E90065836015B0BDEC028BBDE8F08F25
:102BA00001231E4DC3F10103382202FB0354AC4242
:102BB00010D128F087FD0023194DC3F101035022E5
:102BC00002FB0354AC42F4D054F8503D1B6820463D
:102BD0009847F7E754F8383D1B6820469847E6E7E2
:102BE0000123E9E70023DCE7E4890020A890002026
:102BF000180F0020FC8B00205C9000209811002012
:102C0000048B0020000802400000024010900020C9
:102C1000949200200100020003000400948A002026
:102C20000C8C0020B08C0020A486002030B501461A
:102C300089B000222D2002F0BDFB2D2002F0F6FB12
:102C40000025164B02951A6C154C42F480721A64DA
:102C50001B6C03F4807301A903A80293029B04F088
:102C60002FFF04F00DFF0F4A0F4921604300A2FB24
:102C700003239B0C013B40F2E7322046C4E90325C5
:102C80006360A56005F040FD10B1012009B030BDC2
:102C9000204605F0EBFA09B030BD00BF0038024015
:102CA0002C91002083DE1B430020004010B5184803
:102CB000184901608CB04FF6FF71C16003210023F9
:102CC00001240422039103A9C0E90133CDE90434AE
:102CD000CDE90632CDE90834CDE90A32036105F0C9
:102CE00083FD48B900230A4801A9CDE9013305F065
:102CF00067FF30B90CB010BD0748D82100F0EAFBDF
:102D0000F0E70548DF2100F0E5FB0CB010BD00BF87
:102D10001C92002000040040B4AD030810B5184810
:102D2000184901608CB04FF6FF71C1600321002388
:102D300001240422039103A9C0E90133CDE904343D
:102D4000CDE90632CDE90834CDE90A32036105F058
:102D50004BFD48B900230A4801A9CDE9013305F02C
:102D60002FFF30B90CB010BD0748F92100F0B2FBBD
:102D7000F0E705484FF4807100F0ACFB0CB010BDDB
:102D80005892002000080040B4AD030800B5244864
:102D90002449002387B04FF0FF32C0E90013C0E997
:102DA0000232036105F004FDF8B900231C486946AE
:102DB000CDE9003305F004FF58BB0A220123CDE919
:102DC000022300210F230822CDE9041314480DEB40
:102DD000020105F095FDB0B911480C2202A905F0D9
:102DE0008FFD40B907B05DF804FB0F4840F21111A8
:102DF00000F070FBD9E70C484FF4937100F06AFBC8
:102E000007B05DF804FB084840F2211100F062FBB6
:102E1000E2E705484FF48C7100F05CFBCDE700BFA2
:102E200094920020000C0040B4AD03080A480B49FE
:102E300008B542F603120023C0E90013C0E90232CC
:102E4000036105F061FC00B908BDBDE80840044815
:102E500040F2731100F03EBBA4910020001C004022
:102E6000B4AD0308124A0368934282B012D0114AEB
:102E7000934201D002B070470F4B002201921A6CAE
:102E800042F080021A641B6C03F080030193019BE3
:102E900002B07047084B002200925A6C42F00102C7
:102EA0005A645B6C03F001030093009B02B070470F
:102EB00000000140001C0040003802400368B3F1EC
:102EC000804F82B012D0114A934201D002B07047B5
:102ED0000F4B002201925A6C42F002025A645B6C62
:102EE00003F002030193019B02B0704703F50E3318
:102EF000002200921A6C42F001021A641B6C03F06B
:102F000001030093009B02B0704700BF0004014022
:102F100000380240124A0368934282B012D0114A2C
:102F2000934201D002B070470F4B002201921A6CFD
:102F300042F004021A641B6C03F004030193019B2A
:102F400002B07047084B002200921A6C42F0020255
:102F50001A641B6C03F002030093009B02B07047DD
:102F60000004004000080040003802400E4B026898
:102F70009A4200D0704700B583B003F50B330022AE
:102F80000192196C41F0080119641B6C03F00803ED
:102F9000019332200121019B02F00CFA322003B090
:102FA0005DF804EB02F042BA000C004070B52A4A0A
:102FB0000368934286B007D0B3F1804F1FD0274AF1
:102FC00093422CD006B070BD4FF46043244801A951
:102FD000002402260125CDE90136CDE903440595FB
:102FE00002F04CFE4FF4E0631E48019301A9CDE9C5
:102FF0000264CDE9044502F041FE06B070BD002335
:103000000122174805924FF44065022401A9CDE939
:103010000154CDE9033302F031FE06B070BD8023C8
:103020000325104805950024022601A9CDE90136A3
:10303000CDE9034402F022FE0948059501A9CDE936
:103040000156CDE9034402F019FE4FF4E07306483F
:10305000019301A9CBE700BF00000140000401403B
:1030600000040240000002400008024010B552482F
:10307000524C6022002394B040F6AC518260022290
:10308000C0E90043C0E90313426105F03DFB00289D
:103090005BD14FF480534848029302A905F068F9C8
:1030A000002840F08380444805F066FB002878D172
:1030B000414805F045FB00286ED1202200233E4800
:1030C0006946CDE9002305F07BFD00285FD1002291
:1030D000702339480C9206A9CDE90632CDE90822C1
:1030E000CDE90A2205F0F4FC00284BD13248042235
:1030F00006A905F0EDFC00283FD12F48082206A9BB
:1031000005F0E6FC002833D100232B4806930C225F
:1031100006A905F0B1FC30BB4FF400614FF48062AA
:103120000023CDE90D1214244FF4005222481393CA
:103130000DA9CDE90F34CDE9113205F067FD48B98D
:103140001D48FFF733FF14B010BD1D48532100F098
:10315000C1F99EE792211A4800F0BCF91648FFF722
:1031600025FF14B010BD1648862100F0B3F9D3E74F
:103170001348802100F0AEF9C6E711487B2100F02A
:10318000A9F9BAE70E48762100F0A4F9AEE70C4899
:103190006A2100F09FF99AE70948632100F09AF943
:1031A0008BE707485E2100F095F981E70448592133
:1031B00000F090F977E700BF68910020000001401F
:1031C000B4AD030810B5274800238AB04FF08044FF
:1031D00060214FF48052C0E90043C0E9021203614C
:1031E00005F0CAFA28BB00231E4801A9CDE9013326
:1031F00005F0E6FC80BB002370210222CDE9031319
:10320000059218480793082203A905F061FCF0B95C
:103210000C2241F20104002312480DEB0201CDE91A
:10322000044305F055FC48B90E48FFF7BFFE0AB04D
:1032300010BD0D48A52100F04DF9D4E7BC210A4886
:1032400000F048F90748FFF7B1FE0AB010BD064884
:10325000B52100F03FF9DBE70348AC2100F03AF973
:10326000C9E700BFE0910020B4AD030810B53D48A8
:103270003D4C6022002390B040F6AC5182600222A7
:10328000C0E90043C0E90313426105F075FA002864
:103290003FD12022002333486946CDE9002305F0C1
:1032A0008FFC002857D1002270232E48089202A9D3
:1032B000CDE90232CDE90422CDE9062205F008FC71
:1032C000002842D12748042202A905F001FC002869
:1032D00035D1082223480DEB020105F0F9FB40BB74
:1032E0004FF400614FF480620023CDE909121424E9
:1032F0004FF400521B480F9309A9CDE90B34CDE9D7
:103300000D3205F083FC50B91648FFF74FFE10B0A0
:1033100010BD164840F2391100F0DCF8B9E74FF45F
:10332000B171124800F0D6F80E48FFF73FFE10B01A
:1033300010BD0E484FF4AB7100F0CCF8D0E70B484D
:1033400040F2511100F0C6F8C3E708484FF4A671E7
:1033500000F0C0F8B6E705484FF4A07100F0BAF8E5
:10336000A1E700BFD092002000040140B4AD0308E3
:1033700000B583B0234B00220092186B40F400107C
:103380001863186B00F40010009000980192186BFD
:1033900040F4800018631B6B03F480030421019345
:1033A0000B20019B02F006F80B2002F03FF80022F0
:1033B0000A210D2001F0FEFF0D2002F037F8002257
:1033C0000A210F2001F0F6FF0F2002F02FF8002253
:1033D0000A21102001F0EEFF102002F027F8002251
:1033E0000A21112001F0E6FF112002F01FF800224F
:1033F0002F20032101F0DEFF2F2003B05DF804EB46
:1034000002F014B80038024070B594B0294A2A4B33
:1034100000200190116C41F080511164126C02F097
:1034200080520192019A02901A6842F480421A6016
:103430001B6803F48043092002934FF480324FF459
:103440008003CDE908020224029D0F930121042587
:10345000A822072308A8CDE90D14CDE91052CDE923
:10346000124304F081F800B1FEE74FF4A05205903A
:103470004FF480530F26052103A8CDE90364CDE95D
:10348000062304F05DFA044600B1FEE704F0F2FA08
:103490000A4BA3FB0030800901F0E8FF284601F049
:1034A000FFFF224631464FF0FF3001F083FF14B09A
:1034B00070BD00BF0038024000700040D34D621064
:1034C000034B02689A4200D0704701F05FB800BF1A
:1034D00000200040FEE700BF0368B3F1A04F00D01A
:1034E000704710B54FF4C05286B00223CDE90123D6
:1034F000002401A903220A230F480593CDE90342C2
:1035000002F0BCFB0D4B596B41F0800159630094F4
:10351000596C41F4804159645B6C03F4804322464A
:10352000009306214320009B01F044FF432001F05B
:103530007DFF06B010BD00BF000002400038024011
:1035400070B5D0F8EC5382B005F2AA2600F56F7181
:1035500004463046019108F06FFE95F8AA320199B1
:1035600003F06003402B03D195F8AB32502B06D00B
:10357000D4F8EC0302B0BDE8704008F0CBBAD5F83F
:10358000B832B5F8B0229B680121C5E9A5122846DA
:1035900031469847B5F8B03203B908B102B070BDF2
:1035A000284602B0BDE8704008F0B4BEC1EBC103CC
:1035B00000EB8303D0F8EC03D3F8042208F0DABA66
:1035C000C1EBC10300EB8303D0F8EC035A6C08F0A5
:1035D00007BB00BFD0F8EC0308F09ABB10B5C16878
:1035E00004460039D0F8EC0318BF012108F078FB3D
:1035F000D4F8EC03BDE8104008F04ABB10B504460F
:10360000D0F8EC0308F070FB2268D2F8003E43F0DB
:103610000103C2F8003E236A23B1034A136943F051
:103620000603136110BD00BF00ED00E0D0F8EC030D
:1036300008F064BBD0F8EC0308F07ABBD0F8EC03D8
:1036400008F074BBD0F8EC0308F074BBD0F8EC03BE
:1036500008F072BB02780AB100207047194B10B510
:10366000C3F8EC034FF0A044C0F8C4320620022196
:10367000C3E900401846C3E90312C3E90521C3E9C1
:103680000722C3E90B225A6203F08EFAA0B9802107
:103690000C4803F065FF402200210A4803F038FF80
:1036A00040220121074803F033FF4022032105484F
:1036B00003F02EFF002010BD034840F25911FFF720
:1036C00009FFE4E710930020CCAD030808B5D0F85B
:1036D000C40203F0D7FA032896BF024B0320185CFC
:1036E00008BD00BFE8AD0308944608B51A46D0F8F7
:1036F000C402634603F0EEFD032896BF014B03208E
:10370000185C08BDE8AD030808B5D0F8C40203F0A2
:1037100021FE032896BF024B0320185C08BD00BFA2
:10372000E8AD030808B5D0F8C40203F09DFE0328F5
:1037300096BF024B0320185C08BD00BFE8AD03082C
:1037400008B5D0F8C40203F0BDFE032896BF024BB3
:103750000320185C08BD00BFE8AD03080A06D0F8D6
:10376000C43206D4C1EBC10103EB810393F8FA0123
:10377000704701F07F01C1EBC10103EB810393F8B6
:103780003A00704708B5D0F8C40203F091FD032851
:1037900096BF024B0320185C08BD00BFE8AD0308CC
:1037A00008B5D0F8C40203F037FE032896BF024BD9
:1037B0000320185C08BD00BFE8AD030808B5D0F8C9
:1037C000C40203F0F7FD032896BF024B0320185CE8
:1037D00008BD00BFE8AD030808B5D0F8C40203F087
:1037E00011FE08BD10B51148114C4FF48272002330
:1037F000C0E900424FF400610122C0E90231C0E992
:1038000004324FF4007418210A22C0E90641C0E9CD
:103810000833C0E90A3204F0C1F900B910BDBDE8AF
:10382000104004485221FFF755BE00BFC09700204A
:10383000003C0040ECAD03083A4B02689A4200D0CD
:103840007047F0B587B003F5FE33002700971A6C78
:10385000354E42F400421A641B6C03F4004300939B
:10386000009B0446032302204FF4A052CDE902003E
:1038700001A92E4804930623019205934FF4006595
:1038800002F0FCF901232948039301A9019502F0F4
:10389000F5F9274B33604023C6E90173E3684FF421
:1038A0008062C6E903725BBB1D460022C6E9055370
:1038B0001D4872624FF40033C6E9072301F0FCFD96
:1038C00058BB1C4DE3681C49A66400224FF480607D
:1038D000C5E90012C5E90222B46328619BB9194603
:1038E0000022C5E9051313486A624FF48033C5E925
:1038F000072301F0E1FD58B9E564AC6307B0F0BD02
:103900004FF40053D1E74FF400614FF40053E7E761
:103910000A48A021FFF7DEFDEEE708488921FFF7FE
:10392000D9FDCEE7003C004060970020000802402F
:10393000B86002400097002010600240ECAD030820
:103940000D4B02689A4200D070470C4A136C10B5B8
:1039500023F4004304464FF4E0511364084802F096
:10396000B7FAA06C01F040FEE06C01F03DFEBDE84E
:103970001040332001F068BD003C00400038024098
:10398000000802400A480B4908B50C220023C0E990
:103990000233C0E90432C0E90633016005F0C4FA1D
:1039A00000B908BDBDE8084003485121FFF792BDAA
:1039B000D8990020004C004000AE03080A480B498B
:1039C00008B50C220023C0E90233C0E90432C0E983
:1039D0000633016005F0A8FA00B908BDBDE808404B
:1039E00003486421FFF776BD989900200044004009
:1039F00000AE030870B5584A0368934282B004468B
:103A000004D0564A93424BD002B070BD002302F559
:103A1000F6320093116C524E41F400211164126C85
:103A20005049B36002F4002200924FF00062C6E9F0
:103A3000001200984FF480614FF480723046C6E95E
:103A40000331C6E90533C6E90833F26101F034FDFC
:103A5000002872D1444D454966634FF0006200234F
:103A6000C5E90012284640214FF48062C5E90213DF
:103A7000C5E90533C5E90733B4632A616B6201F018
:103A80001BFD002854D12563342000220A21AC6399
:103A900001F090FC342002B0BDE8704001F0C6BCDB
:103AA000002302F5FA320193116C314E41F40031DA
:103AB0001164126C2F49B36002F4003201924FF08E
:103AC0000062C6E9001201984FF480614FF48072E1
:103AD0003046C6E90331C6E90533C6E90833F26169
:103AE00001F0EAFC70BB244D244966634FF000628C
:103AF0000023C5E90012284640214FF48062C5E941
:103B00000213C5E90533C5E90733B4632A616B6263
:103B100001F0D2FCD8B92563262000220A21AC632B
:103B200001F048FC262002B0BDE8704001F07EBCE8
:103B300013489421FFF7CEFCA5E711488221FFF737
:103B4000C9FC87E70E48B621FFF7C4FCCBE70C4859
:103B5000C821FFF7BFFCDEE7004C004000440040F6
:103B60001898002040600240789800207060024061
:103B7000D89800208860024038990020A060024058
:103B800000AE030808B5096827F050FB002008BD07
:103B900008B5044B00221868022107F009FE002036
:103BA00008BD00BF44E6002008B5044B0022186899
:103BB000012107F0FDFD002008BD00BF44E6002004
:103BC00021280CD100234FF0C20C012008220B70D9
:103BD00081F801C08870CB700B714B718A71002025
:103BE000704700BF8C46BCF1400F01460ED80A4B0F
:103BF000812AD3F8BC320DD0832A07D15C331B7ADB
:103C000033B913460448624608F024BD03207047C8
:103C1000012070474433F2E7509D002030B524481E
:103C2000244C2549002301228FB04FF48035C0E990
:103C30000045C0E90A138360036183610362C360C6
:103C4000C2610363426100F0C5FC08BB0624012287
:103C500000231748039301A9CDE9014200F032FE89
:103C600008BB012206210023CDE905124FF4801480
:103C700009920F4807934FF4803205A9CDE90C242F
:103C8000CDE90A33089300F0C3FE30B90FB030BD60
:103C90000A485E21FFF71EFCD8E708487821FFF7A5
:103CA00019FC0FB030BD05486821FFF713FCD8E7B9
:103CB000189A0020002001400100000F18AE0308F0
:103CC00010B52648264C4FF480310023C0E900414E
:103CD00001228EB04FF080544FF06061C0E90A14A9
:103CE0008360036183610362C360C26103634261F5
:103CF00000F070FC08BB0D24012200231748039339
:103D000001A9CDE9014200F0DDFD08BB01220A2135
:103D10000023CDE905124FF4801409920F48079350
:103D20004FF4803205A9CDE90C24CDE90A3308937C
:103D300000F06EFE30B90EB010BD0A489221FFF7B8
:103D4000C9FBD8E70748AC21FFF7C4FB0EB010BD94
:103D500004489C21FFF7BEFBD8E700BF609A002013
:103D60000021014018AE030810B52648264C4FF438
:103D700080310023C0E9004101228EB04FF0805411
:103D80004FF06061C0E90A148360036183610362DC
:103D9000C360C2610363426100F01CFC08BB0C24D9
:103DA000012200231748039301A9CDE9014200F045
:103DB00089FD08BB01220B210023CDE905124FF438
:103DC000801409920F4807934FF4803205A9CDE97A
:103DD0000C24CDE90A33089300F01AFE30B90EB076
:103DE00010BD0A48C621FFF775FBD8E70748E02158
:103DF000FFF770FB0EB010BD0448D021FFF76AFB3F
:103E0000D8E700BFA89A00200022014018AE03089E
:103E1000F0B5424A0368934289B007D0404A9342C2
:103E20003FD0404A93425BD009B0F0BD00263E4BE4
:103E300000965A6C3D4D42F480725A645B6C03F4F8
:103E40008073009303272F2303A904463848009A60
:103E50000393CDE9047601F011FF702335480393F5
:103E600003A90497059601F009FF334A6E624FF4E7
:103E70008063C5E900262B614FF400624FF40053C4
:103E8000C5E9052328464FF48073C5E90266C5E9F4
:103E9000073601F011FB002839D1A563AC6309B0E6
:103EA000F0BD0024204B01945A6C214842F400726A
:103EB0005A645B6C03F400730193032503A92F2359
:103EC0000393CDE90454019B01F0D8FE70231948F7
:103ED000059403A9CDE9033501F0D0FE09B0F0BD8A
:103EE000114B1348002402945A6C42F480625A64C5
:103EF0005B6C059403F48063032202930F2503A9EE
:103F0000CDE90352029B01F0B9FE09B0F0BD0B48A8
:103F10004FF48A71FFF7DEFABFE700BF00200140CF
:103F2000002101400022014000380240F09A0020A8
:103F300000080240000002401064024018AE03086E
:103F400010B582B00024224B00945A6C42F4804297
:103F50005A645A6C02F480420092009A01941A6CDE
:103F600042F080521A641B6C03F0805301930320CB
:103F7000019B01F00DFA224621466FF00B0001F083
:103F800019FA224621466FF00A0001F013FA224680
:103F900021466FF0090001F00DFA22466FF004008F
:103FA000032101F007FA224621466FF0030001F0D9
:103FB00001FA22460F216FF0010001F0FBF92246C1
:103FC0000F214FF0FF3002B0BDE8104001F0F2B910
:103FD00000380240122301480B807047E80300209C
:103FE000042301480B807047FC03002010B5044CEB
:103FF00004480A46214608F037F9204610BD00BFA4
:10400000509B00202CAE030810B5044C04480A460F
:10401000214608F029F9204610BD00BF509B002022
:1040200040E9002010B5044C04480A46214608F037
:104030001BF9204610BD00BF509B00203CAE03087A
:1040400010B5044C04480A46214608F00DF92046F4
:1040500010BD00BF509B002058AE030810B5044CA3
:1040600004480A46214608F0FFF8204610BD00BF6C
:10407000509B002064AE03080020EE2908B5108094
:1040800002D0062905D008BD1346122204481A8022
:1040900008BD0449044808F0E7F8024808BD00BF1D
:1040A00000040020509B002074AE0308704700BF3E
:1040B0001B4A1C49536C10B423F4404353644B6CAB
:1040C0000468194A8FB023F440434B640294D0E94A
:1040D000014303940493D0E90434C1680591069325
:1040E000D0E90613079408910993936A0A93D2F8CA
:1040F00088200E4B0B925B6B0C930A9BC3F34023FF
:104100008DF806300A9B0122C3F300238DF8073097
:104110000D920D9B002BFCD10FB05DF8044B704746
:10412000000001400004014000ED00E000EF00E06D
:104130001EF0040F0CBFEFF30880EFF30980FFF7C8
:10414000B7BF00BF0549064A4B6C23F440434B649C
:10415000536C23F440435364F6E700BF0000014072
:104160000004014008B5FFF7EDFF00BF08B5FFF7F9
:10417000E9FF00BF704700BF07F086BB014801F0B0
:104180000BBB00BF00970020014801F005BB00BF3A
:1041900018980020014801F0FFBA00BF789800206D
:1041A000014801F0F9BA00BFD8980020014801F099
:1041B000F3BA00BF38990020014801F0EDBA00BF02
:1041C00060970020014800F0BBBF00BF140400202E
:1041D000014800F0B5BF00BF14040020014800F002
:1041E000AFBF00BF14040020014800F0A9BF00BF0A
:1041F00014040020014805F023B800BF989900205E
:1042000008B5044804F080F9BDE80840024804F00D
:104210007BB900BFD09200202C910020014803F010
:1042200019BF00BFC0970020014805F009B800BFC2
:10423000D899002010B5094C09490022204607F002
:1042400029FC0849204607F03DFC2046064908F0B5
:10425000F9F92046BDE8104007F04ABC509D002007
:10426000CC03002044040020B8030020214B026846
:104270009A4200D0704730B587B0002403F5EA3386
:1042800000941A6C42F000721A641B6C03F0007305
:10429000009302224FF4407103230925CDE9011256
:1042A00000981548059501A9CDE9034301F0E6FC06
:1042B00022462946132001F07DF8132001F0B6F8BC
:1042C00022462946142001F075F8142001F0AEF8BA
:1042D00022462946152001F06DF8152001F0A6F8B8
:1042E00022462946162001F065F8162001F09EF8B6
:1042F00007B030BD00640040000402401049114B7B
:10430000D1F8882042F4700210B4C1F888201A68ED
:104310000D4C002042F001021A6098601A6822F0E9
:10432000847222F480321A605C601A684FF0006474
:1043300022F480221A60D8608C605DF8044B7047CC
:1043400000ED00E00038024010300024F0B58BB0E2
:10435000334B344E344F002400941A6B42F0040265
:104360001A63196B01F00401009100990194196B13
:1043700041F080011963196B01F0800101910199ED
:104380000294196B012211431963196B11400291B8
:1043900002990394196B41F002011963196B01F042
:1043A0000201039103990494196B41F00801196308
:1043B0001B6B03F00803049330464FF4C041049B89
:1043C00001F034FE224638464FF4805101F02EFEB3
:1043D00001254FF4C04305A93046CDE90535CDE9A7
:1043E000074401F04BFC304605A948F21023059321
:1043F000CDE9064401F042FC38464FF4805305A94C
:104400000593CDE90654089401F038FC04230748CD
:10441000079505A9CDE9053401F030FC0BB0F0BDDE
:10442000003802400008024000040240000C024034
:1044300010B50D4B0D4C41000D480022C3E9004062
:104440004FF480441846C3E90221C3E90442C3E99A
:1044500006221A6201F0EEFD00B910BDBDE8104061
:1044600004484F21FFF736B8E0A000200054004078
:10447000A0860100A8AE0308304B02689A4200D023
:10448000704770B582B000232D4A0193116C2D4EF8
:1044900041F400111164126C2B49B36002F4001254
:1044A00001924FF00072C6E9001204464FF4806199
:1044B00001984FF480723046C6E90331C6E90533EE
:1044C000C6E90833F26100F0F7FF60BB1F4D2049D9
:1044D000A6634FF000720023C5E900122846402170
:1044E0004FF48062C5E90213C5E90533C5E9073316
:1044F000B4632A616B6200F0DFFFC8B900220921B2
:1045000065631F20AC6300F055FF1F2000F08EFF95
:1045100020200022092100F04DFF202002B0BDE83C
:10452000704000F083BF0B486E21FEF7D3FFCDE74C
:1045300008488021FEF7CEFFE0E700BF00540040AE
:104540000038024020A000201060024080A000201F
:10455000A0600240A8AE030808B50B4B1A6842F4ED
:1045600000721A601A6842F480621A601A6842F493
:1045700080721A60032000F00BFF0620FEF756FB46
:10458000FFF7DEFC002008BD003C0240034A044B5C
:1045900011681B780B441360704700BF34A10020E2
:1045A00040040020014B1868704700BF34A1002070
:1045B00038B50446FFF7F6FF631C054602D0044BEE
:1045C0001B781C44FFF7EEFF431BA342FAD338BD10
:1045D00040040020002800F09C80036C10B50446C5
:1045E0003BB1236CDB060CD5002384F83C30012062
:1045F00010BD436480F83C30FFF70AFC236CDB06F7
:10460000F2D4236C464A23F4885323F0020343F088
:10461000020323645168236821F4403151605168DA
:104620006068014351605A682069A16822F4807271
:104630005A605A6842EA00225A605A68E06822F0DA
:1046400040725A605A680A435A609A68A16A22F412
:1046500000629A609A6802439A60324A91429A686C
:104660004FD022F07062E06A9A609A6811439960B4
:104670009A6822F040529A609A6802439A609A6857
:10468000A069216A22F002029A609A6842EA400216
:104690009A605A6800293ED042F40062616A5A600A
:1046A0005A6822F460425A605A68013942EA41323B
:1046B0005A60DA6AE169206B22F47002DA62DA6A1F
:1046C000013942EA0152DA629A68616922F40072A1
:1046D0009A609A6842EA40229A609A6822F480625C
:1046E0009A609A68002042EA81229A606064236C92
:1046F00023F0030343F001032364002384F83C30D8
:1047000010BD22F070629A609A6822F040529A605E
:10471000B5E70120704722F400625A60C9E700BF84
:10472000002301400100000F70B590F83C3082B0CA
:104730000546012B4FF0000001906CD001232E683C
:1047400085F83C30B368DB0714D4B36843F0010349
:10475000B360324B1868324BA3FB0030800C00EB87
:1047600040000190019B2BB1019C013C01940198F8
:104770000028F9D1B368DC073CD5286C20F4E06050
:1047800020F0010040F4807028647368580505D556
:104790002B6C23F4405343F480532B642B6CA86B95
:1047A00013F480531CBF6B6C23F006036B6400236F
:1047B00085F83C3013460A461A49C1631A49016418
:1047C0001A49C1646FF022013160716841F0806163
:1047D0007160B16841F48071B16006F14C0100F084
:1047E0003DFF134B5B68DB0607D12B68986810F020
:1047F00040500AD0002002B070BD0E4A2B68934290
:10480000F8D1986810F04050F4D19A6842F0804294
:104810009A6002B070BD022002B070BD3C0400205E
:1048200083DE1B433D4800089D480008AD48000852
:104830000023014000200140704700BF836B1A6CC9
:1048400012F0500F25D11A6C196842F4007210B59D
:104850001A648A6812F0405F17D19A69AAB9CA6AC5
:1048600012F4700F02D08A6850050ED44A6822F004
:1048700020024A601A6C22F480721A641A6CD20404
:1048800003D41A6C42F001021A641846FFF7D4FFF1
:1048900010BD9B6BDB6C1847704700BF08B5806B81
:1048A000FFF7FAFF08BD00BF704700BF806B08B577
:1048B00040230364436C43F004034364FFF7F4FFB5
:1048C00008BD00BF70B590F83C3082B00022012BCB
:1048D000019200F09480012380F83C300D68036859
:1048E0008C68092DAAB229D81E6905EB450E4FF038
:1048F000070C0CFA0EFC26EA0C061E611E6904FA6F
:104900000EF434431C614C68062C04EB84012BD854
:104910005C6B05394FF01F0C8A400CFA01F124EA58
:1049200001015963596B0A435A63364A93422CD0AA
:10493000002380F83C30184602B070BD02EB420CF8
:10494000DE68ACF11E0C4FF0070E04FA0CF40EFA00
:104950000CFC26EA0C06DE60DE683443DC604C6842
:10496000062C04EB8401D3D90C2C34D81C6B2339CE
:104970001F268A4006FA01F124EA01011963196B26
:104980000A431A631F4A9342D2D1122D30D0A5F1A7
:104990001003012BCCD81C4A5368102D43F400039C
:1049A0005360C5D1194B02F146721B6802F52E32D5
:1049B00002F28332A2FB03239B0C03EB83035B0015
:1049C0000193019B002BB3D0019B013B0193019B01
:1049D000002BF9D1ACE7DC6A41391F268A4006FA80
:1049E00001F124EA0101D962D96A0A43DA629CE73B
:1049F000D2F8043343F48003C2F8043398E702206A
:104A000002B070BD00200140002301403C040020A2
:104A1000F0B590F83C30CD69012B00F0C380012344
:104A200080F83C300C6803688A68092C1FFA84FC03
:104A300064D81E6904EB440E072707FA0EF726EA2E
:104A400007061E611E6902FA0EF232431A619A6B62
:104A50000F694E6822F440129A639A6B07F1FF3E89
:104A600042EA0E529A63F21CD21BD2B29F6B02EB47
:104A700082024FF01F0E0CFA02FC0EFA02F227EA35
:104A800002029A639A6B4CEA02029A63464A954282
:104A90009A6822F470229A609A6864D015439D60E7
:104AA0009A680D6A22F440129A609A682A439A60C2
:104AB0008A69002A32D05A6842F480625A604A6990
:104AC000002A32D05A6842F480525A60022ECA68D4
:104AD00032D0032E55D0012E49D0196A21F47F61BE
:104AE00021F00F011962196A0A431A622F4A934290
:104AF0002ED0002380F83C301846F0BD0CEB4C065D
:104B0000DF681E3E4FF0070EB2400EFA06F627EAA7
:104B10000606DE60DE683243DA6098E75A6822F4FF
:104B200080625A604A69002ACCD15A6822F48052C5
:104B30005A60022ECA68CCD1996921F47F6121F0B4
:104B40000F01996199690A439A61184A9342D0D139
:104B5000122C20D0103C012CCBD8154A536843F4BA
:104B600000035360C5E722F440129A60A0E7596938
:104B700021F47F6121F00F01596159690A435A619B
:104B8000B4E7D96921F47F6121F00F01D961D969B6
:104B90000A43DA61AAE7D2F8043343F48003C2F887
:104BA0000433A6E70220F0BD01000F000020014001
:104BB0000023014000287BD038B590F8203004460F
:104BC000002B72D02268136823F002031360FFF7F2
:104BD000E9FC054604E0FFF7E5FC431B0A2B5BD824
:104BE00023685A689107F6D41A6842F001021A60E5
:104BF000FFF7D8FC054604E0FFF7D4FC401B0A2869
:104C00004AD823685A68D207F6D5227E012A1A6844
:104C10000CBF42F0800222F080021A60627E012AFC
:104C20001A680CBF42F0400222F040021A60A27ED5
:104C3000012A1A680CBF42F0200222F020021A60FA
:104C4000E27E012A1A680CBF22F0100242F0100224
:104C50001A60227F012A1A680CBF42F0080222F073
:104C600008021A60627F012A1A680CBF42F004022F
:104C700022F004021A60D4E90220216902430A43A7
:104C800060696168024301390A4300200121DA6149
:104C9000606284F8201038BD636A052243F4003353
:104CA000636284F82020012038BDFFF7DFFA89E72E
:104CB0000120704790F82020012A0AD090F8202087
:104CC000022A034605D0426A42F4802201205A6239
:104CD0007047404BD3F800220120024330B4C3F8A0
:104CE0000022D3F8002222F47C52C3F80022D3F829
:104CF00000224C6A42EA0422C3F800224A69D3F82F
:104D00001C42904024EA0004C3F81C42CD69C4430D
:104D1000002D45D1D3F80C522540C3F80C52D200D7
:104D2000CD688B8802F1804202F5C84243EA054310
:104D3000C2F840328D680B8843EA0543C2F844321A
:104D40008B69244A33BBD2F804322340C2F80432C0
:104D50000B69C3B91F4BD3F814221440C3F8144293
:104D60000B6A012B05D11B4AD2F81C320343C2F84F
:104D70001C32184AD2F8003223F00103002030BC64
:104D8000C2F800327047134AD2F814320343C2F813
:104D90001432E5E7D2F804320343C2F80432D7E70D
:104DA000012DCDD1D3F80C520543C3F80C52D200DB
:104DB0000D688B8802F1804202F5C84243EA054340
:104DC000C2F840328D688B8943EA0543C2F8443209
:104DD000B6E700BF0064004070B590F82030012BAA
:104DE000044606D0436A012643F40023436230465A
:104DF00070BD0268DEB2022380F82030136823F011
:104E000001031360FFF7CEFB054604E0FFF7CAFB82
:104E1000431B0A2B08D823685B6813F00103F5D104
:104E20001E466362304670BD636A052243F4003358
:104E3000636284F82020304670BD00BF38B590F81A
:104E40002030022B044605D0436A43F4801301202E
:104E5000636238BD0268136843F001031360FFF713
:104E6000A1FB054604E0FFF79DFB431B0A2B0CD872
:104E700023685A68D207F6D51A68012122F0020287
:104E80001A6084F82010002038BD636A052243F4BC
:104E90000033636284F82020012038BD844690F8F6
:104EA0002000012803D09CF8200002283ED1DCF825
:104EB000000010B48468640105D48468240102D41D
:104EC0008468E40043D58468C4F3016C012404FAC7
:104ED0000CF41C608B688BB3CC6823434C6843EAAA
:104EE000C4030CF118042401035100EB0C130C69EA
:104EF000C3F88441097D01294FEA0C1C05D1D3F880
:104F0000841141F48071C3F8841160445168C0F881
:104F10008C111268C0F88821D3F880215DF8044B09
:104F200042F001020020C3F880217047DCF82430F1
:104F300043F480230120CCF824307047CB680C6800
:104F400043EA44540CF118031B01C450CDE7DCF8CC
:104F500024305DF8044B43F400130120CCF82430D6
:104F6000704700BF90F82030012B05D090F820301A
:104F7000022B01D000207047036898689A689B68EC
:104F80001201C0F3806048BF0130DB00F3D501306F
:104F9000704700BF30B590F82040012C844603D004
:104FA00090F82000022872D1DCF80040002961D17D
:104FB000E068850763D004EB01104FEA011ED0F8CA
:104FC000B05105F004059560002D6CD1D0F8B051BA
:104FD0006D0D1560D0F8B051C5F34005D560D0F81F
:104FE000B45105F00F0515617444D0F8B451D0F8F0
:104FF000B401D4F8B841C5F30725000C95615061A0
:105000001C70DCF800207244D2F8B821120A5A70E1
:10501000DCF800207244D2F8B821120C9A70DCF847
:1050200000207244D2F8B821120EDA70DCF80020A9
:105030007244D2F8BC211A71DCF800207244D2F814
:10504000BC21120A5A71DCF800207244D2F8BC214B
:10505000120C9A71DCF800207244D2F8BC21120EB6
:10506000DA71E1B9DCF80020D36843F02003084688
:10507000D36030BD01299ED1206980079BD1DCF827
:10508000243043F400130120CCF8243030BDDCF888
:10509000243043F480230120CCF8243030BD012992
:1050A00006D0002030BDD0F8B051ED08556091E732
:1050B000DCF80020136943F020030020136130BDA9
:1050C00090F82030012B05D090F82030022B01D031
:1050D00000207047036819B9D86800F003007047D2
:1050E000186900F00300704790F82020012A034659
:1050F00009D090F82020022A05D0426A42F480228A
:1051000001205A6270471A6853690B4300205361AB
:10511000704700BF90F82020012A034609D090F87C
:105120002020022A05D0426A42F4802201205A62DD
:1051300070471A68536923EA0103002053617047DE
:105140002DE9F84F03685C69D3F804809F68D3F8B1
:105150000CB0D3F810A0D3F8189014F0010605464F
:1051600020D017F001060DD00122B9079A6000F196
:10517000D0807A0700F1E18017F0080600F0E680A1
:105180004FF48056FB050BD52B684FF48072B805A1
:105190009A6000F1BA80790540F1CA8046F4005661
:1051A000FB0371D4230702D51BF0100F77D16707DB
:1051B00003D51BF0080F40F09980A00704D52B6899
:1051C000DB68990740F08E80620602D51AF0100F56
:1051D00054D1A30602D51AF0080F6ED1E70604D504
:1051E0002B681B69980740F08880A10302D518F04E
:1051F000100F69D1E20302D518F0080F6BD1230418
:1052000039D518F0040F2B6833D0E70504D519F011
:10521000010F18BF46F00106A00504D519F0020FD2
:1052200018BF46F00206610504D519F0040F18BF37
:1052300046F0040622051CD519F0700919D0B9F101
:10524000400F00F08E8008D8B9F1200F7BD0B9F163
:10525000300F62D146F0200607E0B9F1500F6FD051
:10526000B9F1600F08BF46F480769A6922F07002A7
:105270009A6104225A60C6B9BDE8F88F2B681022E3
:1052800046F480661A61A4E72B684FF48032B803B5
:105290009A6036D4790346D546F4004682E72B68F7
:1052A000102246F40076DA6081E76B6A33432846C1
:1052B0006B6212F025FBBDE8F88F2B6808221A619B
:1052C000284612F017FB89E72B6810225A602846FF
:1052D00012F012FB8EE72B6808225A60284612F063
:1052E0000DFB8CE7284612F0EBFA6DE72B680822DD
:1052F000DA60284612F0F0FA5FE7284612F0F8FA72
:1053000073E7284612F0CAFA4CE7284612F0BAFAB8
:1053100046E712F0ABFA002634E7B9F1100FA4D13A
:1053200046F00806A1E73A0317D546F4803639E778
:105330003A050ED546F4804632E74FF4006621E781
:1053400046F0800691E746F010068EE712F0B2FABA
:1053500018E7284612F0B0FA22E7284612F0AEFA13
:1053600020E746F0400680E7406A704790F820202A
:10537000012A034609D090F82020022A05D0426A6B
:1053800042F4802201205A62704700205862704720
:105390000749CA6803024FF6FF0003F4E0630240C6
:1053A000134343F0BF6343F40033CB60704700BF47
:1053B00000ED00E01B4BDB68C3F3022300B5C3F133
:1053C000070EBEF1040F03F1040C28BF4FF0040ECA
:1053D000BCF1060F1CD9A3F1030C4FF0FF3303FA05
:1053E0000CF322EA03024FF0FF3303FA0EF321EA33
:1053F000030303FA0CF313431B010028DBB20ADB9F
:1054000000F1604000F5614080F800335DF804FB76
:1054100000229446E7E7044A00F00F0002441376A6
:105420005DF804FB00ED00E0FCEC00E0002807DB89
:105430004109044A00F01F000123834042F8213053
:10544000704700BF00E100E000280CDB430906497B
:1054500000F01F0020330122824041F82320BFF3D7
:105460004F8FBFF36F8F704700E100E00138B0F15C
:10547000807F10D210B44FF0E023084C58614FF0F9
:10548000F00C84F823C00022072110469A615DF8D1
:10549000044B196170470120704700BF00ED00E028
:1054A0004FF0E022042813690CBF43F0040323F0FB
:1054B00004031361704700BF38B50446FFF772F864
:1054C000002C67D023680222002184F8341084F86D
:1054D00035201A6822F0010205461A6005E0FFF740
:1054E00061F8431B052B39D823681A68D107F6D415
:1054F000D4E90120E16802430A43D4E90451A069D8
:105500002A430A43E1691D6802430A43334929409B
:10551000256A2A430A43616A042926D01A605A6917
:1055200022F007021143D8B22D4A59611038A2FB6C
:10553000005212092B4923F47F73895CE16523F043
:1055400003035F2888BF04333F228A40A3650020FD
:105550009A600123606584F8353038BD032320222A
:10556000626584F83530184638BDD4E90B512943BB
:10557000114319605969A26A21F00701114341F0F2
:105580000401002DCFD038B9012A23D032F0020215
:10559000C9D108E0012038BDB0F5005F0CD0022A67
:1055A00003D9032ABFD1EA01BDD501234022626598
:1055B00084F83530184638BD032AB4D801A050F815
:1055C00022F000BFAB550008A7550008AB550008F6
:1055D000D5550008B5F1C07FA5D1E6E73F8010F0B2
:1055E000ABAAAAAABCAE0308002831D090F8353087
:1055F000022B0246D8B22AD013681649D8B2103806
:1056000030B4A1FB004109091C68134D24F00104CA
:105610006D5C1C600021196059609960D960196146
:105620002121596123F47F7323F003035F2888BF8E
:1056300004333F200021A840D565936598605165EB
:1056400082F8341082F83510084630BC7047704735
:1056500001207047ABAAAAAABCAE030870B490F8A8
:105660003440856D012C39D090F835404FF0010C55
:10567000644580F834C005D0002380F8343070BC15
:1056800002207047022680F83560046800264665CF
:10569000266826F48026266063608368402B0EBF50
:1056A000A260A160E260C26D08BFE1603F23934049
:1056B000AB602368026C43F016032360636943F018
:1056C000800363611AB1236843F0080323602368F1
:1056D00043F001030020236070BC7047022070BCBF
:1056E000704700BF70B50446866DFEF75BFF94F807
:1056F0003530022B06D00023802284F834306265D6
:10570000012070BD23681A6822F016021A605A69D7
:1057100022F080025A61226C054632B31A6822F0E8
:1057200008021A601A6822F001021A6005E0FEF70A
:1057300039FF431B052B0FD823681B6813F00103A7
:10574000F5D1E16D3F228A400121B26084F8343006
:1057500084F83510184670BD0320202200236265AE
:1057600084F8343084F8350070BDA26C002AD5D19D
:10577000D8E700BF90F83530022B03D08023436573
:10578000012070470268052380F83530136823F044
:105790000103002013607047F0B583B0674A876D3E
:1057A000166800230193C36D3D6808229A402A427F
:1057B000044603D001680868400778D401229A4063
:1057C0002A4203D02168496908066AD404229A4013
:1057D0002A4203D02168096889075CD410229A40C4
:1057E0002A4203D021680868000741D420229A4049
:1057F0002A4214D021680868C00610D5BA6094F80F
:105800003520052A63D00B6813F4802F0B687ED0F7
:10581000190340F18980E36B0BB120469847636D13
:1058200023B3636DDA071AD522684549052384F846
:1058300035301368A1FB061623F00103B60A136086
:1058400002E01368DB0704D5019B0133B3420193E7
:10585000F7D90022012384F8342084F83530E36C32
:1058600023B1204603B0BDE8F040184703B0F0BDB7
:10587000BA600A6812F4802F0A6822D1D20503D4D4
:105880000A6822F008020A60226C002AAED0204684
:105890009047E36DAAE7BA60626D42F00402626568
:1058A0009CE7BA60626D42F0020262658EE70868AA
:1058B00020F004000860BA60626D42F00102626587
:1058C0007CE71103E0D5A26C002AE0D18EE70A68DC
:1058D00022F016020A604A6922F080024A61226CB4
:1058E0003AB30A6822F008020A603F2202FA03F380
:1058F000216DBB600022012384F8342084F8353008
:105900000029B3D0204603B0BDE8F040084713F4A7
:10591000807380D10A6822F010020A60012284F8A4
:10592000343084F8352076E7636C002B7FF475AF54
:1059300075E7A26C002AD4D1D7E700BF3C04002051
:10594000B5814E1B1B4BDA68D10605D51A49CA69C9
:1059500010200243CA61D860164BDA68920606D559
:105960001549CA69202042F00802CA61D860114B6B
:10597000DA68500606D51049CA69402042F0040290
:10598000CA61D8600B4BDA68110606D50A49CA69A4
:10599000802042F00202CA61D860064BDA689207A2
:1059A00006D50549CA69022042F02002CA61D860C2
:1059B000704700BF003C024038A10020064B1A6926
:1059C000002A01DB002070470449054A59605A60EB
:1059D0001869C00F704700BF003C024023016745B3
:1059E000AB89EFCD034A136943F0004300201361F4
:1059F000704700BF003C0240014BD869704700BFB0
:105A000038A10020124B70B500220446DA61FEF77F
:105A1000C9FD104D064601E0611C0DD1EB68DA03AB
:105A2000FAD4EB68DB0744BF0123EB60094BD8686D
:105A300010F0F20008D170BD24B1FEF7B3FD801B59
:105A4000A042EBD9032070BDFFF77CFF012070BDA1
:105A500038A10020003C02402DE9F0412F4D95F87F
:105A600018C0BCF1010F30D080461C464CF25030BB
:105A700001230E4617462B76FFF7C4FF18B100230B
:105A80002B76BDE8F081264BB8F1000F20D0B8F19D
:105A9000010F33D01A6922F440721A61B8F1020F73
:105AA0001A6922D042F440721A611A6942F0010266
:105AB0001A61376074604CF25030FFF7A3FF184A48
:105AC000136923F001031361D9E70220BDE8F081D7
:105AD000196921F440711961196919611969FAB2DA
:105AE00041F0010119613270E5E742F400721A6178
:105AF0001A6942F001021A613760DCE7196921F482
:105B000040711961196941F4807119611969BAB25A
